:10000000C05800200D6901008DA70200E1680100C1
:10001000E1680100E1680100E16801000000000002
:10002000000000000000000000000000E56001008A
:10003000E16801000000000079600100E168010052
:10004000A9610100DDC60200A9610100A9610100EA
:10005000A9610100A9610100A9610100A961010074
:10006000A5C60200A9610100A9610100C3C6020082
:10007000A9610100A9610100A9610100A961010054
:10008000A9610100A9610100A9610100A961010044
:10009000A9610100A9610100A9610100A961010034
:1000A000A9610100A9610100A9610100A961010024
:1000B000A9610100A9610100A9610100A961010014
:1000C000A9610100A9610100A9610100A961010004
:1000D000A9610100A9610100A9610100A9610100F4
:1000E000A9610100A9610100A9610100A9610100E4
:1000F000A9610100A9610100A9610100A9610100D4
:1001000001F0FF01102A2BDB10F0070F08D010F8C8
:10011000013B013A8B422DD010F0070F42B3F6D1CC
:10012000F0B441EA012141EA014122F007047FF0E5
:1001300000070023F0E80256083C85EA010586EA3C
:10014000010685FA47F5A3FA87F586FA47F6A5FA78
:1001500087F68EB9EED1F0BC01F0FF0102F0070284
:1001600032B110F8013B013A83EA010313B1F8D12F
:100170000020704701387047002D06BF3546033810
:10018000073815F0010F07D1013015F4807F02BF49
:10019000013015F4C03F0130F0BC0138704700BF9A
:1001A0007BB972B90029BEBF00204FF0004106E0C4
:1001B00008BF00281CBF6FF000414FF0FF3000F077
:1001C000B7B9ADF1080C6DE904CE002909DB002BAD
:1001D0001ADB00F04DF8DDF804E0DDE9022304B09D
:1001E0007047404261EB4101002B1BDB00F040F8FF
:1001F000DDF804E0DDE9022304B0404261EB410197
:10020000524263EB43037047524263EB430300F0F7
:100210002FF8DDF804E0DDE9022304B0404261EB91
:1002200041017047524263EB430300F021F8DDF8CF
:1002300004E0DDE9022304B0524263EB430370475C
:1002400053B94AB9002908BF00281CBF4FF0FF313D
:100250004FF0FF3000F06CB9ADF1080C6DE904CE41
:1002600000F006F8DDF804E0DDE9022304B0704791
:100270002DE9F047089E0D4604468E46002B40F0BF
:1002800082808A42174646D9B2FA82F24AB1C2F156
:10029000200105FA02F320FA01F1974041EA030E2A
:1002A00094404FEA1748230CBEFBF8FCB9B208FB98
:1002B0001CEE43EA0E430CFB01F098420AD9FB18EE
:1002C0000CF1FF3580F01681984240F21381ACF1B9
:1002D000020C3B441B1AA4B2B3FBF8F008FB10332A
:1002E00044EA034400FB01F1A14209D93C1900F1A1
:1002F000FF3380F00181A14240F2FE8002383C448D
:10030000641A40EA0C4000211EB1D4400023C6E923
:100310000043BDE8F08702B9FFDEB2FA82F2002A9C
:100320004FD1CB1B4FEA174E1FFA87F80121B3FBC1
:10033000FEFC250C0EFB1C3345EA034508FB0CF3C1
:10034000AB4207D97D190CF1FF3002D2AB4200F26B
:10035000E7808446ED1AA3B2B5FBFEF00EFB105504
:1003600043EA054408FB00F8A04507D93C1900F111
:10037000FF3302D2A04500F2D7801846A4EB080450
:1003800040EA0C40C0E78B4208D9002E00F0AF8055
:100390000021C6E900050846BDE8F087B3FA83F1FD
:1003A00000294BD1AB4202D3824200F2B780841ABB
:1003B00065EB030301209E46002EAAD0C6E9004E3D
:1003C000A7E7C2F1200C01FA02F3974020FA0CF0E3
:1003D0004FEA174E21FA0CFC1843BCFBFEF1050C4A
:1003E0000EFB11CC1FFA87F845EA0C4501FB08F318
:1003F000AB4204FA02F409D97D1901F1FF3C80F007
:100400008B80AB4240F2888002393D44EB1A85B2C2
:10041000B3FBFEF00EFB103345EA034500FB08F387
:10042000AB4207D97D1900F1FF3C71D2AB426FD9C5
:1004300002383D44EB1A40EA014178E7C1F1200C53
:100440008B4022FA0CF71F4320FA0CF405FA01F353
:100450004FEA174E25FA0CF51C43230CB5FBFEF9A9
:100460001FFA87F80EFB195543EA054509FB08FA00
:10047000AA4502FA01F200FA01F308D97D1909F13F
:10048000FF3047D2AA4545D9A9F102093D44A5EB61
:100490000A05A4B2B5FBFEF00EFB105544EA054474
:1004A00000FB08F8A04507D93C1900F1FF352DD213
:1004B000A0452BD902383C4440EA0940A4EB08048B
:1004C000A0FB02894C45C6464D4619D316D05EB1F5
:1004D000B3EB0E0264EB050404FA0CFCCA404CEAD0
:1004E0000202CC40C6E900240021BDE8F087314675
:1004F00030460EE7AC46EDE6184601E74345E6D246
:10050000B8EB020E69EB07050138E0E72846D3E7B0
:1005100060468FE78146BAE7614677E708464BE7D2
:10052000ACF1020C3D4415E702383C4426E700BF1D
:10053000704700BFF8B515460A4A1C4656682EB1EA
:1005400001B02A46B446BDE8F040604700208DF86F
:10055000000068460BF036FF9DF80000281A207056
:100560000020F8BD0000002001480078704700001E
:100570000800002005490A78904201D30020704706
:10058000496800EBC00001EB8000704708000020C4
:1005900070B50546202A27D019481A4C00EB831C59
:1005A0000CEB420004EB8303202922D00CEB410129
:1005B00040784C784870204601460CEB410091424F
:1005C00005704078F8D193F82220202A1ABF0CEB4E
:1005D0004202547083F8214020220CEB410C8CF82D
:1005E000012083F8221070BD40F27E21702003F0BC
:1005F00087F993F82040407883F82000DBE700007B
:100600008C0E00200C0F00202DE9FF4F85B0154601
:100610000C4602F015F9284420F07F400290216832
:10062000081A0002C11700EB11600012002800F345
:10063000D580AC48089FAC4E00EB8700039090F843
:1006400020502020E9460DF104088DF8000006F541
:10065000407A202D18BF0AEB871B25D005EB4500FB
:1006600006EBC0002268C168511A0902CA1701EBE3
:1006700012610830091217D4618971B1418961B9D9
:1006800000F0B4FD02F0DCF82168081A0002C1177E
:1006900000EB11600012332806DB0BEB450089F8F4
:1006A00000504578202DD9D199F8000088F8000035
:1006B000A146202D1CBF8D4800EB871B00F00E814A
:1006C00005EB450106EBC10AD9F80420DAF8081059
:1006D0004846891A0902CA1701EB12610AF1080794
:1006E000091215D47989002900F0F8804189002980
:1006F00040F0F48000F07AFD02F0A2F83968081AA0
:100700000002C11700EB11600012332880F2E6806E
:1007100088F800509AF8141099F80C00814206D914
:100720000BEB45004578202DCAD100F0D7B89DF8D5
:10073000040000EB400006EBC005688AEF68002863
:1007400043D16089E8B3A8680BF05CFE698A2A7C13
:10075000674B1144491C4218984204D940F2096180
:10076000702003F0CDF86348814204DD40F20A6155
:10077000702003F0C5F86048814204DA40F20B6152
:10078000702003F0BDF85D489042DCBF02F5F7022F
:10079000A2F1F85205DD002ABCBFA2F5F70202F172
:1007A000F852104602F04CF820F07F41781A00020F
:1007B000C21700EB126000123328B8BF01F13300FA
:1007C00000E002E0B8BF20F07F470298381A00022C
:1007D000C11700EB11600012002803DD09B00020F2
:1007E000BDE8F08FD4E90010401A384427F07F416B
:1007F00020F07F40C4E900100398DDF820806F46A8
:1008000090F8205020200DF1040A8DF80000202DD2
:100810001CBF364800EB881925D000BF05EB45000A
:1008200006EBC0002268C168511A0902CA1701EB21
:1008300012610830091216D4618971B1418961B918
:1008400000F0D4FC01F0FCFF2168081A0002C11777
:1008500000EB11600012332805DB09EB45003D7009
:100860004578202DDAD138788AF800002746202DE7
:100870001CBF1E4800EB881B30D005EB450106EB82
:10088000C1097968D9F808203846511A0902CA17EF
:1008900001EB126109F10808091212D4B8F80A1024
:1008A000E1B14189D1B900F0A1FC01F0C9FFD8F84C
:1008B0000010081A0002C11700EB11600012332863
:1008C0000CDA8AF8005099F81400397B88427FF6D8
:1008D0002EAF0BEB45004578202DCED109B001207D
:1008E000BDE8F08F0C0F00208C0B00208C0E002038
:1008F000FF7F841E0020A10700E05EF80080841EB8
:100900002DE9F05F04463C480E4600EB86003B4F65
:1009100090F82050202098469246107007F54079B4
:10092000202D18BF09EB861B28D000BF05EB450022
:1009300007EBC00000F10801C0682268101A00022D
:10094000C21700EB1260001218D4608978B1488990
:1009500068B9084600F04AFC01F072FF2168081AE5
:100960000002C11700EB11600012332806DB0BEB0D
:1009700045008AF800504578202DD7D19AF800001C
:1009800088F80000202D18BF09EB861A30D005EB3F
:10099000450107EBC1096168D9F808202046511AC2
:1009A0000902CA1701EB126109F10806091210D4F5
:1009B0007189E9B14189D9B900F018FC01F040FF13
:1009C0003168081A0002C11700EB116000123328C9
:1009D0000EDA88F8005099F81400217B884202D87A
:1009E0000020BDE8F09F0AEB45004578202DCED1D0
:1009F0000120BDE8F09F00000C0F00208C0B0020B0
:100A00002DE9F74F98B016460D464FF000084FF00D
:100A1000010B02F097F90446012D18BF022D05D0F5
:100A200040F694114FF0700002F06AFFF94901207E
:100A30000860F9498968086000208DF84E000C9024
:100A4000401E0E90F54906EB460001EBC00308334B
:100A50000FAF0FCB87E80F000FA800F0C7FB0D907A
:100A6000EE48BDF84690B0F89C03ADF84C00B9F1E3
:100A7000000F14BF4FF0010A4FF0000A0F981490B6
:100A8000BAF1000F09D0E64890F82C0028B902F01E
:100A9000BFFE002808BF012700D00027E148002240
:100AA000159200781646012818BF032840D1DD486A
:100AB000B0F80280A8EB09001590C84538D90D9B05
:100AC0006FEA0801DFF860E358180DF10C0C17AA63
:100AD000734504D940F20961702002F011FFD34B35
:100AE000994204DD40F20A61702002F009FFD04B08
:100AF000994204DA40F20B61702002F001FFCD4907
:100B00008142DCBF00F5F700A0F1F85005DD0028B8
:100B1000BCBFA0F5F70000F1F850614601F0ACFE53
:100B200003980F9920F07F400390081A20F07F422D
:100B3000002F18BF322604D19DF84C00002818BFA2
:100B40000226B4F1807F08D00F98001B0002C11765
:100B500000EB11600012012802DA042018990BE062
:100B600047B1AF4890F82D0020B19DF84C00061C0D
:100B700018BF022621460120B9F1000F02D0159BB3
:100B80001E2B02DA9DF84C3013B14FF0000B401EC3
:100B90008319A4489DF84DE0007815900F98801AAD
:100BA00020F07F4CACEB01000002C61700EB166092
:100BB0000012984218DB002A18BFCDF83CC00F9EE7
:100BC0000597002701F0B6FF301A0002C11700EBAD
:100BD000116000123E283FDA012D20D0701E0599C9
:100BE00020F07F4019B32DE082B1BEF1000F04BFA9
:100BF000159803280AD027B99DF84C00002818BF83
:100C00009B1E00228DF84C209046C7E707BB9DF83D
:100C10004C00E8B100208DF84C009B1EBEE7B4F1FB
:100C2000807F20D140F60D11702002F069FEB4F1F2
:100C3000807F07D0211A0902CA1701EB126109123D
:100C4000042903DD044601F07BFF0CE000290ADDE6
:100C50001BB00020BDE8F08F701E20F07F442046BE
:100C600001F06EFF5746B4F1807F24D00F98109B9F
:100C7000001B1B1B704A20F07F4023F07F438345FD
:100C800098BFB0F5800FE3D29A42E1D320460BF033
:100C9000B9FB65490D9A4B1C161AB6EB930F24BF8E
:100CA000A0EB020CBCEB930F10D3B14208D2081A90
:100CB0001044461C0AE040F62D21702002F020FE70
:100CC00061452CD2891A0844401C46425448807F12
:100CD00050B3284645464FF0000BD846012805D0B2
:100CE000022002F085F9012002F082F9A94527D2FD
:100CF000A6EB05014FF001034FF003024FF0020095
:100D000002F0A2F8002808BF4FF00108B9F1000F67
:100D100030D00123A6EB0901032218461EE040F65D
:100D20000C31702002F0ECFDC14534BF404648460E
:100D30005844B042CDDB4FF42461702002F0E0FD56
:100D400010D90123A6EB09010322184602F07CF812
:100D500028B37DB1711B01230322022002F074F835
:100D6000E8B107E055EA090004D040F67711702099
:100D700002F0C6FD012303223146002002F064F890
:100D800068B10125B8F1000F03D014980F908DF8C9
:100D90004CB0DFF8A880BAF1000F0ED109E00220B4
:100DA00002F026F9012002F023F91BB00020BDE873
:100DB000F08F1B4890F82D0000B14FB3DFF860A012
:100DC0009AF82C0018B102F0EBFB8AF82CB007B3AC
:100DD000A4F1320020F07F414FF40020C8F8000059
:100DE00000230322052002F02FF868B34FF080445F
:100DF000052002F0C9F91249C1F81005C1F81445DF
:100E00001049E0120860064C94F82D00E8B330E079
:100E10001BE01FE008050040100000208C0B0020A4
:100E20000C0F002012000020FF7F841E0020A1076D
:100E300000E05EF80080841EFFFF3F0008F50140DF
:100E400098F0014004F5014025E0DFF8B8A09AF8D9
:100E50002C00C8B12B4C94F82D0050B14FF4002059
:100E6000C8F80000052002F0C3F802F001FC84F885
:100E70002DB0A6EB0900A0F11901002915DC40F600
:100E80007121702002F03CFD00E009E002F0A4FBBB
:100E90008AF82C509BE740F23E31702002F030FD82
:100EA00002F0D8FB84F82D50E3E70322012310461B
:100EB00001F0CAFF08B314488068C0F800B01348B6
:100EC000C0F800B00CAC124894E80E10C0F88013C3
:100ED000C0F88423C0F88833C0F88CC310AC94E801
:100EE0000E10C0F89013C0F89423C0F89833C0F8DF
:100EF0009CC31BB00120BDE8F08F40F67921702023
:100F000002F0FEFC0C0F002010000020080500403D
:100F10008C0B00202DE9F043064683B008789073CF
:100F2000CF7A5773887A10730889144650810D461A
:100F30000A785F4999464FEA810C4B42ACF10108AF
:100F40005AB1C043D5F8048004F1080288423DDD5F
:100F500040F20A61702002F0D3FCEE686D686FEA1F
:100F6000000904F1080206EB0900464504D940F2E5
:100F70000961702002F0C4FC8945E9DC994528DB51
:100F80008445DCBF00F5F700A0F1F85005DD00282E
:100F9000BCBFA0F5F70000F1F850214601F06CFC51
:100FA000206820F07F417019401C2160002F08BF8D
:100FB0007A3003D0012F08BF48302DD101F040FC1A
:100FC00020F07F40606003B0BDE8F08301469842A6
:100FD00004DA40F20B61702002F092FC8445DCBF21
:100FE000A1F1F450A0F5902005DD0028BCBF01F16F
:100FF000F45000F59020214601F03EFC2068002FBF
:1010000020F07F4108F10100216008BF7A3008D04C
:10101000012F08BF483004D040F2B161702002F0C7
:101020006FFC01F00DFC20F07F416160608901AA36
:10103000694601F021FC1F4890F82F10202923D089
:101040000069401D20F07F40D4E90021891A20600A
:10105000084420F07F4060604B4632462146E868F5
:10106000FFF7D2FA00281CBF03B0BDE8F083D4E933
:101070000010401A304426F07F4120F07F40C4E940
:10108000001003B0BDE8F083608906F1090720B1C4
:1010900002F0BEFB002808BF3237074841780098AD
:1010A000814284BF081A074427F07F40CCE7000044
:1010B0000020A1070C0F00201200002010B5154CD5
:1010C00094F82F00202818BF10BD94F82E2004EBB0
:1010D000820090F82010202917D0DFF83CC00CEBDC
:1010E000821303EB41035B7880F82030012380F802
:1010F000233084F82B3084F82F10022000F0B0F851
:10110000002084F82A00A07710BD40F28B317020B7
:1011100002F0F6FB0C0F00208C0E00202DE9F05F92
:10112000DFF8B88098F82E5008EB850090F8214041
:10113000202C08BFBDE8F09FDFF8A4B0DFF8A4A022
:10114000AAF540790AEB8517072617F8140001283D
:101150000ED0042808BF02260AD005280CBF03269B
:10116000062805D040F6D9014FF0700002F0C8FB08
:10117000BBF1000F18BFAFF30080EFF3108072B621
:1011800007EB44014A7808EB850181F8212091F8AA
:101190002220A24204BF202281F82220B8B12A4690
:1011A0002146012000F05CF804EB440109EBC1008A
:1011B00059F8312040683146904798F82E5008EB96
:1011C000850090F82140202CBCD1BDE8F09F064856
:1011D000002818BFAFF3008062B6E0E70C0F0020D4
:1011E000000000008C0E00200000000010B5044636
:1011F00000680BF007F902466089217A144B084415
:10120000411C50189A4204D940F20961702002F042
:1012100077FB104A914204DD40F20A61702002F02F
:101220006FFB0D4A914204DA40F20B61702002F02C
:1012300067FB0A498142DEBF00F5F700A0F1F850D4
:1012400010BD0028BCBFA0F5F70000F1F85010BD9C
:10125000FF7F841E0020A10700E05EF80080841E4E
:10126000DFF854C010B500230CEB821C07281ED2F7
:10127000DFE800F0050505050404040001230CF86F
:101280001100002B08BF10BD0C4800EB820292F841
:10129000220020280EBF82F821100CEB4000417084
:1012A00020200CEB4103587082F8221010BD4FF43F
:1012B0001571702002F024FB8C0E00200C0F002012
:1012C0002DE9F34F83B05C48049900EB8100019055
:1012D00090F8204003982546012818BF022805D021
:1012E0004FF42B614FF0700002F00AFB0027202D15
:1012F0004AD0514800910026807F002808BF02266E
:1013000001F018FCDFF838A104EB44010AEBC1013D
:10131000DFF828918A68C968121A091A22F07F42F8
:1013200021F07F41964298BFB2F5800F01D28945E6
:1013300028D2444A009902EB811B22460BEB420162
:101340004C78202C16D004EB44010AEBC10CDCF8DD
:101350000880DCF80CC0A8EB000828F07F48ACEB54
:10136000000121F07F41464598BFB8F5800FE4D2D7
:101370008945E2D3202A05D020210420009BFFF7D5
:1013800007F90446AC4215D12F48002818BFAFF327
:10139000008001F0CFFB284C94F8301020290DD0AC
:1013A000E168821C511A0902CA1701EB1261091285
:1013B000002903DD05B00020BDE8F08F202D0DD001
:1013C0002A460399FFF71CFB58B3019880F8237055
:1013D00084F8305005B00120BDE8F08F94F82C005F
:1013E00018B102F0DDF884F82C7094F82D0050B19B
:1013F00016494FF400200860052001F0F9FD02F0C5
:1014000037F984F82D70042001F0F2FD01F05EFE42
:10141000202084F830000E48806807600D4807607F
:10142000D8E72A4620210420049BFFF7B1F805B035
:101430000020BDE8F08F00000C0F0020FFFF3F00F0
:101440008C0B00208C0E00200000000008F50140ED
:101450001000002008050040064910B591F82F2023
:10146000202A1CBF887710BD40F2EA31702002F0BC
:1014700047FA00000C0F00202DE9F04F5B4E81462B
:1014800085B096F82F008A4620284DD096F82F0078
:1014900006F10C0400EB4000A6F5607808EBC007ED
:1014A00020208DF8000096F82E0003AA06EB80009D
:1014B00001A990F82050306902903068484401F04A
:1014C000DBF9F86801994A4A0844A9F1650191429B
:1014D0002FD8B968411A21F07F41B1F5800F28D289
:1014E00020F07F406060304684F80CA090F82E0019
:1014F000EA46202D1CBF3F4901EB801B3CD005EB89
:10150000450008EBC0076068BA682146101A00025F
:10151000C21700EB126007F1080600121BD4708995
:1015200050B3488948B127E040F67B31702002F083
:10153000E7F905B00120BDE8F08F2046FFF756FE21
:1015400001F07EF93168081A0002C11700EB116042
:101550000012332810DA8AF80050397D207B81424E
:1015600005D80298606005B00220BDE8F08F0BEB53
:1015700045004578202DC2D1052001F039FD1B4CD6
:101580004FF0FF30A06094F82E309DF8002020210D
:10159000202A13BF052004EB830090F82000FEF7FB
:1015A000F7FF94F82E20134901EB821194F82F20B5
:1015B00001EB42014870206848442060012084F813
:1015C0002B00607E012805D12069401E20F07F405D
:1015D00001F054FB9DF80000202803D00648407815
:1015E00002F05EFA05B00020BDE8F08F0C0F00207D
:1015F0009B1FA1078C0E00201000002070B5234A0D
:1016000092F82F10202939D092F82F10A2F560738C
:1016100001EB410103EBC10C92F82E1092F82E4021
:1016200002EB810191F82010A2F1800505EB8414F2
:10163000202928D001EB410503EBC5052D7D85420E
:1016400084BF04EB41014978F2D801EB410103EB7F
:10165000C101DCF80C0089681468081A0002C1177F
:1016600000EB1160001207D40AF0CCFE04F1650112
:10167000884224BF001B70BD002070BD40F64D3174
:10168000702002F03DF94FF0FF3070BD0C0F0020CC
:10169000064810B590F82F1020291CBF007E10BD01
:1016A00040F67431702002F02BF900000C0F00207E
:1016B0000246144B10B508449A4204D940F209611D
:1016C000702002F01DF9104A914204DD40F20A61D7
:1016D000702002F015F90D4A914204DA40F20B61D4
:1016E000702002F00DF90A498142DEBF00F5F700D3
:1016F000A0F1F85010BD0028BCBFA0F5F70000F124
:10170000F85010BDFF7F841E0020A10700E05EF8A6
:101710000080841E104A0B1A02F1010CB3EB9C0FDF
:101720003CBF1846704710B5441AB4EB9C0F3CBF41
:10173000184610BD9A4203D2101A0844401C10BD2E
:10174000A24204D2511A0844401C404210BD40F647
:101750000C31702002F0D4F8FF7F841E074991F805
:101760003020824204BF4868704700EB40000449C3
:1017700001EBC0000830FFF739BD00000C0F00205E
:101780008C0B00200E4910B591F82F00202812D0A4
:1017900091F82F00A1F5607200EB400002EBC00051
:1017A00091F82F10406801EB410152F83120BDE85B
:1017B00010400421104740F6BC01702002F0A0F850
:1017C0000C0F0020F8B56D4D6D49012605F56074CC
:1017D000082873D2DFE800F004679DAFCD44B4B9A8
:1017E00094F82C0018B901F0F7FE84F82C60E08A18
:1017F00010B102F00DF888B1FFF760FC84F82960A1
:10180000A168B1F1FF3F05D001230322052001F0BB
:101810001BFB40B1607E012810D109E04FF4076145
:10182000702002F06DF840F67501702002F068F843
:101830002069401E20F07F4001F020FA94F82F002C
:1018400094F82F1000EB400005EBC000406801EB5E
:10185000410155F8312001B00121BDE8F0401047A9
:10186000FFF72CFC4FF0FF30A06094F829008DF8B2
:1018700000009DF8000088B194F82F0094F82F1014
:1018800000EB400005EBC000406801EB410155F85A
:10189000312001B00621BDE8F040104740F6860136
:1018A000702002F02DF8FFF709FC84F8286001F0A1
:1018B000AFFF20B194F82C0030B109E059E040F6B8
:1018C0009601702002F01CF801F086FE84F82C606E
:1018D00094F82D0058B12B494FF4002008600520E2
:1018E00001F086FB01F0C4FE002084F82D0094F87E
:1018F0002F0094F82F1000EB400005EBC00040686B
:1019000001EB410155F8312001B00021BDE8F04064
:10191000104701F025FCE08A10B101F079FF28B1F1
:1019200019480078032808BF6677F8BD40F6A10182
:10193000702001F0E5FF1548066088680660F8BD74
:101940000878BDE8F84002F0ABB8FFF7B7FB94F8B1
:101950002F0094F82F1000EB400005EBC00040680A
:1019600001EB410155F8312001B00521BDE8F040FF
:10197000104740F6B401702001F0C2FF8C0B00202C
:101980001000002008F5014012000020080500406A
:101990002DE9F34F8246DC488BB00068DB4DC00573
:1019A000C00D0ED0103840B20028B8BF00F00F00B4
:1019B00000F1E020ACBF90F8000490F8140D40094D
:1019C0000DD00C984FF0000B0078002818BF0128AC
:1019D00018D040F24F714FF0700001F091FF95F870
:1019E0002F004FF0010B202807D00C98007848B149
:1019F00040F24B71702001F083FF4FF4E9617020D9
:101A000001F07EFFC24C24B1002140F25270AFF3CE
:101A10000080C0490AEB4A0001EBC0004FF001080A
:101A2000009024B1002140F25A70AFF30080B8F169
:101A3000000F09D095F82E604FF0000985F82B9023
:101A4000BBF1000F07D032E0B348002818BFAFF356
:101A5000008062B6EEE73746012020EA0706AF486D
:101A6000402200EB871100EB86100AF039FE24B10A
:101A7000002140F2CD50AFF3008005EB870105EB6C
:101A80008600096A016224B1002140F2D150AFF30F
:101A9000008024B1002140F26470AFF3008095F81B
:101AA0002B008DF804009DF804000028B9D124B162
:101AB000002140F26E70AFF3008001F03BF88046E9
:101AC000334606AA0C99FFF725FA24B1002140F20B
:101AD0007570AFF30080914906A801EB861717F8DF
:101AE0001A10012918BF02293CD10699079BA1EBC6
:101AF00008018B4A21F07F41A3EB080323F07F43C9
:101B0000022971D3B1F5800F6ED29A426CD34FF097
:101B1000010901AB05AA3146FEF7F2FE00286BD0A1
:101B20009DF814109DF8042033468A4268D00520A1
:101B3000FEF72EFD07EB4A0148709DF8140020289F
:101B400003BF05EB860080F820A080F8239007EB08
:101B5000400018BF80F801A0324651465FF00300F4
:101B6000FFF77EFB05EB860090F823008DF804005C
:101B70009DF8047024B1002140F27C70AFF3008026
:101B80006848002818BFAFF30080EFF3108872B6E2
:101B900024B1002140F28270AFF3008095F82B0051
:101BA0008DF804009DF8040000287FF43AAF24B1BA
:101BB000002140F28A70AFF300800DF1180E0098FA
:101BC0009EE80E1000F10800B9F1000F80E80E1039
:101BD00044D024B1002140F29770AFF30080BBF1F4
:101BE000000F2CD116E0FFE7324651460420FFF7E4
:101BF00037FB4FF00109B5E7324651460420AFE705
:101C0000202919BF07EB4100407805EB860090F8CA
:101C100020008FE79FB195F82F0020280FD124B125
:101C2000002140F29C70AFF3008031460220FFF7A4
:101C300047FB20B90C980078F0B301284CD024B1B0
:101C4000002140F2B970AFF30080BBF1000F18BF64
:101C500001204AD085F82B004FF0010924B1002162
:101C600040F2CA70AFF30080B8F1000F45D024B144
:101C7000002140F2CE70AFF30080B9F1000F11D017
:101C800095F82E0005EB800090F82100202809D05F
:101C900024B1002140F2D570AFF300802248407893
:101CA00001F0FEFE24B1002140F2DA70AFF30080B3
:101CB0000DB04846BDE8F08FFFE724B1002140F2A7
:101CC000A470AFF3008095F82E2051460420FFF752
:101CD000C7FA4FF00109C1E7002C3FF4A2AE002182
:101CE00040F2AF70AFF300809BE695F82E10012014
:101CF00020EA010185F82E10ACE70748002818BF3C
:101D0000AFF3008062B6B2E704ED00E00C0F0020F4
:101D1000000000008C0B0020000000008C0E002052
:101D2000FFFF3F0000000000100000202DE9F14FF0
:101D3000A5488CB00068C005C00D11D0103840B265
:101D40000028B8BF00F00F0000F1E020ACBF90F811
:101D5000000490F8140D400908BF4FF0010901D0AC
:101D60004FF000090C98007800284FF000001CBFCD
:101D70000DB0BDE8F08FDFF854A2954D954C4FF0B3
:101D8000000B0B9025B100214FF4CB60AFF3008026
:101D900094F82E6084F82BB04FF0000825B1002194
:101DA00040F25D60AFF30080B9F1000F1DD13746FE
:101DB000012020EA07068848402200EB871100EB4B
:101DC00086100AF08DFC25B1002140F2CD50AFF312
:101DD000008004EB870104EB8600096A016225B1EB
:101DE000002140F2D150AFF3008025B1002140F234
:101DF0006560AFF3008000F09DFE074633466A46FB
:101E00000C99FFF787F825B1002140F26B60AFF322
:101E1000008094F82F00202814D020690099091A16
:101E20000902CA1701EB126109120BD5DDE9002185
:101E3000891A20F07F42084420F07F40CDE900203D
:101E40004FF001084DB1002140F27560AFF3008002
:101E5000002140F27B60AFF3008000980199C01B25
:101E6000C91B20F07F4021F07F41B0F5800F05D2E3
:101E70008A4503D3B9F1000F0CD103E0B9F1000F8B
:101E800038D094E033463A4669465448FEF7BCFBE6
:101E900048EA0008B8F1000F22D000980AF0B2FA20
:101EA000BDF80A109DF808204D4B1144491C4218FA
:101EB000984241D8494881425ADC404281425FDB26
:101EC000581C9042DCBF02F5F702A2F1F85205DD82
:101ED000002ABCBFA2F5F70202F1F8520C98C260CA
:101EE00001200B90002D62D0002140F28E60AFF3F4
:101EF00000805CE0BDF80A0008AA07A900F0BCFC5D
:101F000094F82F0020281CD02069401D20F07F402D
:101F1000DDE90021891A014421F07F41CDE900016A
:101F20000AF070FABDF80A109DF808202C4B1144F5
:101F30004A1C8118984218D940F20961702001F0BA
:101F4000DFFCBDF80A0007F1090620B101F060FCD2
:101F5000002808BF3236234841780798814284BF61
:101F6000081A064426F07F40D2E71C48824204DD6E
:101F700040F20A61702001F0C3FC1B48824204DA7F
:101F800040F20B61702001F0BBFC18488842DCBFB6
:101F900001F5F701A1F1F85105DD0029BCBFA1F55C
:101FA000F70101F1F8510C98C16001200B9094F8F1
:101FB0002B008DF810009DF8100000287FF4E2AE91
:101FC0000B980DB0BDE8F08F04ED00E0FFFF3F007F
:101FD000000000000C0F00208C0E00200020A10744
:101FE000FF7F841E1200002000E05EF80080841E47
:101FF0002DE9F14F884D8CB095F82E000020099006
:102000000120864C4FF00009A5F18007804608901A
:1020100024B1002140F2E970AFF300800898002855
:1020200037D000BF85F82B9024B1002140F2EE702C
:10203000AFF3008095F82EA0402228EA0A0607EBAD
:10204000861007EB8A1183460AF04AFB24B100216F
:1020500040F2CD50AFF3008005EB860005EB8A011E
:102060000090096A016224B1002140F2D150AFF31F
:10207000008095F82B008DF808009DF8080078B1D5
:10208000002C1CBF002140F2F470C1D0AFF30080DF
:10209000BEE76348002818BFAFF3008062B6C1E70F
:1020A00024B100214FF4FF60AFF300800C981BF8BF
:1020B0001000032872D1DDF800A0CDF818A00C990B
:1020C0009AF82000884214BF4FF0000B4FF0010B2C
:1020D0000AF1200C8646202207EB861303E0024615
:1020E00003EB42004078884202D020280AD0F6E76D
:1020F000202807D0864507D103EB4E0040788CF8A6
:10210000000007E048460CE003EB400003EB42010F
:102110004078487024B1002140F23750AFF300807E
:10212000404610EA0B0F18BF8AF82380002852D0CF
:1021300024B1002140F2FD70AFF30080324601204F
:102140000C99FFF78DF8069890F823008DF8080099
:102150009DF808A024B1002140F60800AFF30080EC
:102160003048002818BFAFF30080EFF3108072B63C
:10217000089024B1002140F60D00AFF3008095F8DF
:102180002B008DF808009DF8080040B1002C1CBF02
:10219000002140F611003FF43BAF77E71BE0BAF1B6
:1021A000000F08D095F82F00202804D131460220D6
:1021B000FFF786F808B324B1002140F62500AFF3FD
:1021C000008095F82E0028EA000085F82E0085F89A
:1021D0002B800120099024B1002140F62E00AFF39E
:1021E0000080089888B124B1002140F63200AFF396
:1021F000008009980DB0BDE8F08F002CF1D00021CF
:102200004FF40260AFF30080E6E70548002818BFEE
:10221000AFF3008062B6E6E70C0F0020000000007C
:10222000000000000000000010B5202811D20E4967
:1022300091F82E30A1F1800202EB831C1CF81030C3
:102240003BB191F82E3002EB831212F81020012AD4
:1022500001D0002010BD91F82E2001460020FEF78D
:10226000FFFF012010BD00000C0F00202DE9F84FEA
:10227000804E804696F82E00A6F1800707EB80106E
:1022800010F81800002868D096F82E907A4D25B1E5
:10229000002140F6C130AFF3008007EB891414F839
:1022A0001800012818D0C0B204281CBF0528062831
:1022B00058D02DB14FF0000140F6CD30AFF3008083
:1022C00001F044FC25B1002140F6D130AFF300808D
:1022D00014F818000128E6D1012425B1002140F6A8
:1022E000D830AFF30080002C42D0002086F82B00BD
:1022F00025B1002140F6DD30AFF3008096F82EB016
:10230000012020EA0B0907EB8B1107EB8910402213
:102310000AF0E6F925B1002140F2CD50AFF300807C
:1023200006EB8B0006EB890A006ACAF8200025B18B
:10233000002140F2D150AFF3008096F82B008DF8C9
:1023400000009DF80000D0B1002D1CBF002140F618
:10235000E330C2D0AFF30080BFE740F6B831702061
:1023600001F0CEFA4A4641460120FEF779FFA9E77F
:102370004248002818BFAFF3008062B6B5E725B128
:10238000002140F6E730AFF300809AF821200AF1EF
:10239000210114464FF0200B07EB89100AF1220AA5
:1023A00003E0A34600EB4B035C78444502D0202CAD
:1023B0002BD0F6E7202C28D0A24204D100EB42001B
:1023C0004078087005E000EB440100EB4B004978D1
:1023D0004170BAF1000F11D025B1002140F22F5009
:1023E000AFF300809AF80000A04207D125B1002188
:1023F00040F23250AFF300808AF800B05DB10021A6
:1024000040F23750AFF3008000E025B1002140F6E4
:10241000EB30AFF300801A48002818BFAFF30080FC
:10242000EFF3108472B696F82B008DF800009DF83B
:10243000000038B1002D1CBF002140F6F1303FF400
:102440004CAF87E786F82E90012086F82B0054B118
:10245000002D08BFBDE8F88F002140F6FE30AFF335
:102460000080BDE8F88F0548002818BFAFF3008052
:1024700062B6EDE70C0F0020000000000000000035
:102480000000000070B50D46064601F0AFF90F4898
:1024900090F82E200024803800EB821010F81410E1
:1024A00029B1611CCCB2202CF8D3202070BD084883
:1024B00004EB440140F8316000EBC1002146456067
:1024C0000120FEF7CDFE204670BD00000C0F00205D
:1024D0008C0B00202DE9F04F83B000F02BFB05465C
:1024E00000F0F4FD674CA068B0F1FF3F1CBF4FF057
:1024F000FF30A060A07FDFF890B1A8B9D4E9030154
:10250000081A0002C11700EB116000124FF40C71A1
:1025100009F0A5FF21690844281A0002C11700EB41
:1025200011600012C00F13D0607E28B394F8290008
:102530008DF800009DF80000F0B100F009FC00BF2C
:1025400094F82A00F0B140F24741702001F0D8F928
:1025500094F82F0094F82F1000EB40000BEBC00014
:10256000406801EB41015BF83120082190474FF4AE
:102570008661702001F0C4F9E81C20F07F4000F073
:10258000DFFADDE74FF0010A84F82AA094F82F0063
:10259000202824D094F82F80202084F82F0084F85D
:1025A0003000002684F8286084F8296037482660C7
:1025B0000078022816BF032801200020207794F815
:1025C0002E7004EB870999F82000202831D000EB09
:1025D00040000BEBC000817D012905D029E040F2CD
:1025E0004A41702001F08CF9AB4600F10805408AA1
:1025F00001AA694600F040F994F82F00202804D081
:102600002069401D20F07F400BE068890BF1090B29
:1026100028B101F0FDF8002808BF0BF1320B2BF0B8
:102620007F40D5E90021891A2860084420F07F40C6
:10263000686039460120FEF743FE0028F9D01448AF
:1026400000EB871010F81800022804D13A464146E2
:102650000620FEF705FE84F82BA099F8210020281B
:1026600003D00C48407801F01BFA207F002804BFFB
:1026700003B0BDE8F08F00F073FD2677667703B0F6
:10268000BDE8F08F0C0F00208C0B00201200002002
:102690008C0E00201000002010B5324C82B094F84F
:1026A0002F10202908D0A168B1F1FF3F09D040F6D2
:1026B000E921702001F024F940F6E821702001F0B2
:1026C0001FF962680146284B50189A4204D940F21B
:1026D0000961702001F014F9244A914204DD40F2AE
:1026E0000A61702001F00CF9214A914204DA40F2AB
:1026F0000B61702001F004F91E498142DCBF00F536
:10270000F700A0F1F85005DD0028BCBFA0F5F700E8
:1027100000F1F85001AA694600F0AEF89DF80400F7
:102720000F288CBF012000200099084420F07F4131
:10273000A16094F829008DF800009DF800000028A1
:1027400004BF02B010BD01230322052000F07CFB72
:1027500000281CBF02B010BD40F6F121702001F02E
:10276000CFF800000C0F0020FF7F841E0020A1077F
:1027700000E05EF80080841E70B51E4C202184F8B5
:10278000201084F8211084F82210002084F82300FF
:1027900084F82E0084F82F10421EA2602060A077DB
:1027A00084F8280084F829002077607784F83010B6
:1027B000114984F82C0084F82D0008704870488076
:1027C000A4F182011022887001F8040F521EFAD180
:1027D0000A4D012684F82A60FF202870084801F07D
:1027E00041F9687001F09CF9A86000F0E7FC84F8FA
:1027F000316070BD0C0F002012000020100000207E
:102800001D11000070B50546012000FA05F40E46C2
:10281000002A08BF08480CD0002000F0B5FCE900F1
:1028200001F1804101F5F831C1F81005C1F81465D6
:102830000248046070BD000008F5014004F5014045
:10284000410B48F2376251430A0C094B510202FB1B
:1028500003020848504300F586306E30400D5B425D
:1028600010FB03F3B2EB532F88BF491C0844704799
:10287000F7C2FFFF6F0C0100430B48F2376C03FBFC
:102880000CF330B41B0CDFF844C05C0203FB0C03F8
:102890000F4858434FEA505C04EB0C0043F60954D0
:1028A0001CFB04F404F5807C43F60855A3EB5C2C78
:1028B0002C440CF0FF0CB3EB542F84BF4FF0000CF2
:1028C000401C086082F800C030BC7047F7C2FFFFB0
:1028D0006F0C01002DE9F041364CD4F804034FF49D
:1028E000006610F4803F4FF0E0274FF0000519D04C
:1028F00031480068B0B1C4F84051C7F880622F4831
:102900000068D4F80415401A20F07F40022802D352
:10291000B0F5800F06D34FF48030C4F808030420CC
:10292000FEF750FFD4F8040310F4003F19D02448F8
:102930000068B0B1C4F84451C7F88062214800680B
:10294000D4F80415401A20F07F40022802D3B0F5D5
:10295000800F06D34FF40030C4F808030520FEF7BB
:1029600031FFD4F8040310F4802F08BFBDE8F081D4
:1029700015480068002808BFBDE8F081C4F8485138
:10298000C7F8806211480068D4F80415401A20F096
:102990007F40022804D3B0F5800F38BFBDE8F08136
:1029A0004FF48020C4F80803BDE8F0410620FEF78C
:1029B00009BF000000B0004040B1004040B50040F9
:1029C00044B1004044B5004048B1004048B5004023
:1029D0002DE9F041384D2878042868D0E81C012200
:1029E000017859B1012908BF6A7002D069780029BD
:1029F00058D002210170407800F0FAFA2F4CD4F838
:102A000004034FF0000810F4002F4FF480774FF0CC
:102A1000E0260AD02A48006838B1032000F0E8FA1E
:102A2000C6F880720320FEF7CDFED4F8040310F43C
:102A3000802F0AD02348006838B1022000F0D8FA6D
:102A4000C6F880720220FEF7BDFED4F8040310F42D
:102A5000003F0AD01C48006838B1012000F0C8FAD5
:102A6000C6F880720120FEF7ADFED4F8040310F41E
:102A7000803F08BFBDE8F08114480068002808BF07
:102A8000BDE8F081002000F0B3FAC6F8807204209F
:102A90002870C5F80880C4F80082BDE8F041002025
:102AA000FEF790BE40F26A316C2000F029FFBDE8CD
:102AB000F0410720FEF786BE1C0000200080004089
:102AC0004C810040488100404481004040810040EA
:102AD000012211024FF0E0230020C3F8801103F51A
:102AE000C073BFF34F8FBFF36F8FC3F800110E4950
:102AF00041F8042F431EC1F80433C1F83C05C1F866
:102B00003C010A4BC3F84005C1F840011B1DC3F846
:102B10004005C1F844011B1DC3F84005C1F8480138
:102B2000CA6003494870704700800040048000403C
:102B30001C000020014800687047000004B50040F8
:102B40002DE9F047474E0546F71E3278F968012A0D
:102B500004BFA942BDE8F0874FF04040424B1860E7
:102B600042486FF48023C0F8083300F104034FF0AB
:102B70000004002A61D06FF4A02CC0F848C3C3F849
:102B80004045C0F844413A4B1B684FF0E0294FF0F4
:102B90000108002B04BF4FF40063C9F880324FF4E2
:102BA0008033C0F80833C0F84833C0F84041D0F84B
:102BB0000435EB1A23F07F43022B4BD3B3F5800F80
:102BC00048D2C0F840554FF48033C0F8443332B196
:102BD000D0F804258A1A22F07F42022AF8D3C7F8D7
:102BE00008803C70FFF774FF2248D0F8041564F3A6
:102BF0000101C0F80415D0F80825022161F3010293
:102C0000C0F80825D0F81025042161F30302C0F8AC
:102C10001025C0F80C80B968C0F800128015C9F8FA
:102C20008002C9F800011449C00508600420FD6055
:102C3000707086F80080BDE8F0876FF4802CC0F8D3
:102C400048C3C0F84045C0F84041C3F84045C0F80B
:102C5000444198E70021C0F840154FF4FA716C2008
:102C600000F04EFE1F00002008F5014000B00040BB
:102C700048B100400080004004F5014070B52C4C84
:102C8000E268824214BF01210021DFF8A8C09CF84D
:102C90000050022D02D0002937D002E0002908BFE1
:102CA00070BD617881B3244B4FF0804119608B1364
:102CB0002249C1F80833C1F848330023C1F8403134
:102CC000D1F80435C31A23F07F43022B27D3B3F581
:102CD000800F24D2C1F840054FF48033C1F844334B
:102CE0003DB100BFD1F80435D31A23F07F43022B46
:102CF000F8D3134B02214A071A60E06004208CF8D5
:102D000001008CF8001070BD04E040F202216C203C
:102D100000F0F6FD40F206216C2000F0F1FD0020ED
:102D2000C1F8400540F212216C2000F0E9FD0000DE
:102D30001C0000201F00002008F5014000B00040EA
:102D400004F501400148C068704700001C000020E5
:102D50002DE9F04136496FF48020C1F80803354D64
:102D60000B1D0022287868B16FF4A02CC1F848C36D
:102D7000C3F84025C1F844212F4B1B684FF0010CCC
:102D80009BB90CE06FF4802CC1F848C3C1F8402512
:102D9000C1F84021C3F84025C1F84421ECE74FF0C9
:102DA000E0244FF40063C4F88032022804D040F2DB
:102DB0001E216C2000F0A4FDD1F804051F4CC01C9E
:102DC00020F07F40E3681E4E98420CD0D1F8047585
:102DD000DF1B27F07F47042F05D3B7F5800F02D202
:102DE000FFF7AEFE1FE0D1F80405181A20F07F406F
:102DF000022815D3B0F5800F12D212494FF080404F
:102E00000860C4F808C02270C6F804C0C6F80CC038
:102E10004000091F08600420687085F800C002E0C7
:102E2000C4F808C02270A068C6F80002BDE8F081AE
:102E300000B000401F00002048B100401C000020EE
:102E40000080004008F501402DE9F047DFF890C10F
:102E5000002601279CF800409CF801C04FF4A075A3
:102E600007287BD2DFE800F0040404046C6C6C00DB
:102E7000DFF87081D8F80C90B9F1807F04BF98F822
:102E80000180B8F1000F02D0022C05D02CE040F2F6
:102E900051216C2000F034FDACF1040808F0FF086B
:102EA00005EB880505F1804808F530480025012C20
:102EB00002D0022C0BD014E0BCF1040F24BFD8F8D0
:102EC0000090B9F1000F08BF4FF0004509E0BCF1D8
:102ED000040F24BFD8F80090B9F1000F08BF45F0E7
:102EE000804515F0804FE1D13F4C00F1100C07FAFE
:102EF0000CFCC4F808C304EB8005C2B14FF04008D5
:102F000008EB800808F0FF08A044C8F8007004EB44
:102F10008000D0F84005A1EB000020F07F40824205
:102F200098BFB0F5800F28BFC5F8406550D2C5F8EE
:102F30004015012B08BFC4F804C30120BDE8F08789
:102F400034B1844504D14FF41D716C2000F0D8FCDD
:102F5000A0F1040C0CF0FF04012B00E03BE00CBFDF
:102F60004FF001084FF00008032C04D340F24D113C
:102F70006C2000F0C5FCDFF874C004F1100307FA00
:102F800003F3CCF80833CCF8483305EB84044CF851
:102F90000460001FC0B20CEB80006AB1DCF804458D
:102FA0000C1B24F07F44A24298BFB4F5800F24BFCD
:102FB0000021C0F840150BD2C0F84015B8F1000F41
:102FC00018BFCCF80433CCF844330120BDE8F087B7
:102FD0000020BDE8F08740F279216C2000F090FCE1
:102FE0001F0000201C0000200080004000B00040B6
:102FF0002DE9F84300264FF4A0774FF00108072889
:1030000051D2DFE800F0040404041919190000F19A
:10301000100108FA01F22649C1F8082301EB8003E8
:103020000022C3F8402507EB80028E50214951F859
:1030300020000090BDE8F8831F4D011FCCB2297815
:1030400079B16A7882420CD11C4A4FF0404010603E
:10305000012908BFFFF73CFD2E7019494FF0807021
:10306000C86004F1100008FA00F11648C0F808130F
:10307000C0F84813A1000144D1F84015D0F8042548
:10308000891A21F07F41022907D300EB8402002135
:10309000C2F8401507EB840146500B4850F8240055
:1030A0000090BDE8F88340F2F1216C2000F028FC8C
:1030B00000800040408100401F00002008F50140D2
:1030C0001C00002000B0004040B1004020496FF4D7
:1030D0008020C1F808031F480A1D037800205BB157
:1030E0006FF4A023C1F84833C2F84005C1F8440189
:1030F0001949096899B90CE06FF48023C1F8483385
:10310000C1F84005C1F84001C2F84005C1F84401CA
:10311000EEE74FF0E0224FF40061C2F880120F4951
:103120004FF0FF32C1F80823C1F84005C1F8400153
:103130000A1DC2F84005C1F84401121DC2F840053D
:10314000C1F84801121DC2F84005C1F84C01704792
:1031500000B000401F00002048B100400080004047
:10316000084890F902000028B8BF704700F01F011E
:10317000012202FA01F14009800000F1E020C0F8CC
:10318000001270471C00002010B507280DD2DFE8A0
:1031900000F00404040406060600064902E0001FCD
:1031A0000549C0B201EB800010BD40F29D216C20AA
:1031B00000F0A6FB4081004040B1004010B51C4823
:1031C000002404210470C01E01708905C160FFF74E
:1031D0007FFC4FF0E0234FF400624FF0010CC3F886
:1031E0008021BFF34F8FBFF36F8FC3F88022114848
:1031F000C0F804C0C0F808C0D0F804150029FBD1FD
:10320000491EC0F80813C0F84813C0F84045C0F87C
:1032100040410949C1F84045C0F84441091DC1F881
:103220004045C0F84841C3F80021C0F800C010BDB7
:103230001F00002000B0004004B000402DE9F04124
:10324000164C607A002827D04FF480718D052846EF
:1032500009F029F980464FF48271284609F023F9D4
:1032600000260746B8F1000F09D00120C5F8080371
:10327000207920B12671E06908B18047E66137B155
:10328000C5F804610220C5F8080300F06DFA404655
:10329000BDE8F04100F05AB8BDE8F0812C000020F4
:1032A00010B509F0AAF930B909F0C8F918B909F050
:1032B000FBF9002802D002490220086010BD00007E
:1032C000340C004070B500F087F900F0A1FA094C09
:1032D0004FF0804530B1FFF7E3FF01202861042063
:1032E000A07204E00320A0720120C5F804030020AE
:1032F000E07170BD2C00002070B5134CA079F0B1C6
:10330000012803D0E179401E814218DA00F080FAEA
:10331000054600F065FBA179012902D9E179491C34
:10332000E1710DB1616900E02169411A022902DAF7
:1033300011F1020F07DC0DB1606100E02061BDE812
:103340007040FFF7BFBF70BD2C0000202DE9F04793
:1033500006464FF080454FF48671284609F0A3F8E1
:1033600080464FF48871284609F09DF8274C824624
:10337000277804F1080009F00AF910B14FF4D5716B
:1033800016E04FF0010946B1A07A032805D10420C8
:10339000A072FFF785FFC5F810900026B8F1000F66
:1033A00018D0C5F80C61A07A042804D04FF4DE715F
:1033B0006D2000F0A5FA09F020F928B909F03EF9CE
:1033C00010B909F071F908B1114806600220A07225
:1033D00000F0E6F8BAF1000F08D0C5F81061A07A45
:1033E000022801D1FFF788FFC5F814903FB126707D
:1033F000A07A022801D1FFF765FF00F0D1F8BDE8FF
:10340000F0470248083009F0D9B800002C0000202D
:10341000340C00402DE9F0475C4C4FF000080646A4
:10342000C4F81880437882780078E07263710127CD
:10343000A271BD0784F80780052824D2DFE800F0D8
:103440000F03051F2100A76109E000F0C5F8012165
:10345000284609F02DF80028F9D00220A06109F0D3
:1034600053F8B0B100F0EEF9217E01F0030188427B
:103470000FD1B07950B10220C5F804036AE0444886
:10348000ECE74448EAE740F22D3149E000F0AEF9BC
:1034900060E0EF604FF4827AC5F80481A069C5F856
:1034A000180509F096F840B909F09DF828B909F017
:1034B000B1F810B909F0C2F838B14FF08051364870
:1034C000D1F84412C1F34231016009F082F840B9E9
:1034D00009F089F828B909F09DF810B909F0AEF89B
:1034E00010B12D4810300760AF600220C5F804030A
:1034F000B07978BBD5F8040310F0020F0ED0DFF8D6
:103500009C90D9F80010C94341F30017D9F8001076
:1035100041F01001C9F800107F1C07E040F2EE21D5
:103520006D2000F0EDF900BF00F010FB5146284679
:1035300008F0B9FF0028F7D000F058F92FB9D9F8F2
:10354000001021F01001C9F800100220C5F808038E
:10355000C5F80481A07970B1307860B900F058F9ED
:10356000064600F03DFA6FF0004216B1C4E90420AF
:1035700001E0C4E904020121284608F099FF08B1DE
:1035800000F040F984F80A80BDE8F0872C000020A4
:1035900001000200010003003C05004010ED00E0C6
:1035A00010B5EFF3108472B60A48417829B141781A
:1035B000491E4170417829B108E040F20D116D209B
:1035C00000F09EF9807808B900F030F9002C00D1A5
:1035D00062B610BD2C00002010B5EFF3108472B657
:1035E00006484178491C41704078012801D108F013
:1035F00076FF002C00D162B610BD00002C00002028
:10360000054810B5C17821B100210171C170FFF7E3
:10361000C7FF002010BD00002C00002070B50C4C2E
:10362000E17861B90125E570E061FFF7D5FF00F0B1
:10363000EFF830B1E06910B180470020E061002070
:1036400070BD4FF080402571C0F80453F7E70000CB
:103650002C000020EFF3108072B604498A78521CC7
:103660008A70002800D162B6704700002C0000204C
:1036700010B5EFF3108472B60A48817829B18178C9
:10368000491E8170417829B108E040F225116D2072
:1036900000F036F9807808B900F0C8F8002C00D1A5
:1036A00062B610BD2C0000202DE9F04104006FF03F
:1036B00015003CD02178042939D80029617838D008
:1036C000002934D1A178002931D1002008F0B6FEBC
:1036D000002008F0A6FE4FF080484FF0FF31C8F8F8
:1036E00008130026C8F80061C8F80461C8F80C6126
:1036F000C8F81061144F7E70A088B88108F0E6FE0B
:10370000012508B1FD707D700121404608F0D0FE12
:1037100008B100F077F82046FFF77CFE7D720020AC
:1037200008F07FFE4FF0E0213046C1F80051BDE8BF
:10373000F0810029FBD02029F9D8A1782129F6D8D9
:103740000129C2D1F3E700002C0000200148808944
:10375000704700002C0000200248807A002800D02A
:10376000012070472C000020F8B51F4DE87A002892
:103770000FD1287E00F0030008F0B6FE002808D024
:10378000EFF3108172B6FFF7E7FF18B1002900D1FF
:1037900062B6F8BD0126AE7201B962B618204FF0CC
:1037A0008044C4F80803A6614FF42070ADF800000F
:1037B000BDF80000411EADF80010F9D20027C4F892
:1037C0000C71C4F810710848083008F0F3FE2F702F
:1037D000FFF778FD6661687900F07F00C4F838056E
:1037E0001820C4F80403F8BD2C00002010B5044CC8
:1037F000207E00F0030008F077FE0028F8D010BD0E
:103800002C0000200149012008707047840200202C
:103810004FF08040D0F8000118B903480078002824
:1038200000D0012070470000840200204FF080404B
:10383000012141600021C0F800110148017070476A
:10384000840200200248006800F003007047000076
:103850001C04004010B531B1012907D040F20231FB
:1038600005A000F021F8D0F8140401E0D0F8080415
:1038700000F0010010BD00006E72665F636C6F6344
:103880006B2E6800BFF34F8F05480168054A01F4AD
:10389000E06111430160BFF34F8F00BFFDE70000FF
:1038A0000CED00E00400FA0572B6034A526802B15A
:1038B0009047FFF7E7FF00004C000020064810B5D6
:1038C0000021016001210160084608F034FEBDE8D6
:1038D0001040012008F022BEFC1F0040074810B530
:1038E00001214160891EC0F808130C2008F023FE56
:1038F000BDE810400C2008F011BE000000C00040E0
:103900000EB572B60F4A5568D5B1002203466E4611
:103910000A2403E0B0FBF4F0521CD2B20028F9D123
:10392000B05409E0B3FBF4F004FB1030B3FBF4F344
:10393000521ED2B23030B054002AF3D13046A847DC
:10394000FFF7A0FF4C00002070B5174C06460D464F
:10395000607810B14FF0FF3070BD06B9134E626051
:103960002570FFF7ABFFFFF7B9FF3046FFF79CFE6E
:103970000600F1D1FEF700FFFFF7F6FE08F028FD84
:10398000284608F0CBFD0120002D09DB05F01F01C2
:1039900000FA01F16A09920002F1E022C2F8001176
:1039A0006070304670BD00004C00002058C500001B
:1039B00001484078704700004C000020074890F90B
:1039C0000000002809DB00F01F020121914040099E
:1039D000800000F1E020C0F8001270474C00002089
:1039E0002DE9F04101264FF0E02231034FF00008AD
:1039F0004046C2F88011BFF34F8FBFF36F8F164C54
:103A0000C4F800010C2008F0B5FD144D2868C0432F
:103A100040F30017286840F010002860C4F80463E1
:103A200026607F1C02E000BF00F090F8D4F800018F
:103A30000028F9D01FB9286820F010002860084835
:103A400005686660C4F80863C4F800810C2008F0BB
:103A500091FD2846BDE8F08100C0004010ED00E077
:103A600008C5004010B5024605200C4904E000BF1F
:103A700001EBC0031B7933B1401EC0B2F8D248211C
:103A80006920FFF73DFF41F8302001EBC001002223
:103A90004A718A7101220A7110BD0000400F002096
:103AA00010B5052801D3582106E00A4901EBC000F2
:103AB0000179012903D059216920FFF721FF4179BC
:103AC0008279491CC9B28A4200D04171BDE81040D8
:103AD000FFF774BF400F002070B505250E4E0F4C48
:103AE00016E0217806EBC1000279012A08D142795B
:103AF00083799A4204D04279827156F83100804726
:103B00002078401CC0B22070052801D3002020700E
:103B10006D1EEDB2E5D270BD400F00208502002081
:103B200000B508F056FD40B908F05DFD28B908F071
:103B300071FD10B908F082FD08B1024800BD0248CD
:103B400000BD00000C05004000E7014010B508F082
:103B500075FD30B3EFF31080C8B1002172B6124882
:103B600002680368C2F3001243F0100303604FF0D1
:103B7000E023D3F80042D3F804321C4300D040BF06
:103B800020BF00BF00BF00BF00BF12B105E0012190
:103B9000E4E7026822F010020260002900D062B659
:103BA00010BD20BF10BD000010ED00E0ADC800004A
:103BB000C9C80000B7C80000C3C80000B1C80000F1
:103BC000ABC80000A9C80000CFC80000BDC80000F5
:103BD000A3C800009BC800009FC8000095C8000053
:103BE0000148006800680047540000200148006850
:103BF0000069004754000020014A1268926810478B
:103C00005400002001480068C068004754000020AC
:103C1000014A12685268104754000020014909689F
:103C2000096A0847540000200148007870470000E6
:103C3000860200201FB5174C207A022800D20220ED
:103C40008DF80100E079032800D203208DF80000F0
:103C5000A079ADF804006079ADF80200684606F07E
:103C6000EBFF08B1842110E0E068029002A806F0A2
:103C7000F9FF08B1882108E007480068039003A80D
:103C80000BF0CBFA002803D08C21032000F018F9A8
:103C90001FBD0000680F0020AC3F00007CB504464B
:103CA0000E4600F1030020F003004FF00001CDE9C3
:103CB0000001317815008DF8051000D0002001A911
:103CC00000F0EEFA009908440C490090C97849B117
:103CD000317C39B1252205B1002000F029FD009981
:103CE000084400902A463146684608F0F2FD0098E4
:103CF000C01D20F007000090001B7CBD5800002074
:103D000010B528B11422044908F0EAFC002010BDC7
:103D10006FF0150010BD0000C83F000070B5030033
:103D20006FF02C0003D12A4C63780BB1801170BD69
:103D300019B36FF015058AB3264B0C2943D2DFE87F
:103D400001F04206090C10131D2518282E33107897
:103D500018702DE0107858702AE01068C3F805003C
:103D600026E01068D86023E011780029DFD199702F
:103D70001EE011780029DAD1D97019E0E07810B18D
:103D8000107802281FD31078187411E01088588218
:103D90000EE011780029CAD1197109E013E01078FA
:103DA000022810D3187503E011780029BFD1597586
:103DB000012208490020FFF771FFB0F5803F04DBC6
:103DC0006FF00B0070BD284670BD0121A17070BD61
:103DD00058000020680F002070B50C46050019D06F
:103DE000C4B100F025F9C0B12846FFF73BFE0C4DE9
:103DF00000220C4928702046FFF750FF0BF00EFE02
:103E00000021287807F012F9FFF714FF01206870ED
:103E1000002070BD6FF0150070BD4FF0FF3070BD19
:103E200058000020680F002030B587B005000CD086
:103E3000FFF7BEFD4FF0FF3420B1FFF787FCB0F570
:103E4000FA7F05D9204607B030BD6FF01500FAE7BC
:103E5000154C1648656000F0E5F900206070A07010
:103E6000E07001461822684608F0B4FC1822104998
:103E7000684608F035FC182269460E4808F030FC08
:103E8000EFF3108472B60C486FF00C0100F0F2FCF6
:103E90000A4800F0BFFD18B19A21032000F010F885
:103EA00004B962B60020CEE758000020353C00007F
:103EB000B03F0000680F002000C000405D400000DF
:103EC0000EB572B6154A5568D5B1002203466E4646
:103ED0000A2403E0B0FBF4F0521CD2B20028F9D15E
:103EE000B05409E0B3FBF4F004FB1030B3FBF4F37F
:103EF000521ED2B23030B054002AF3D13046A84717
:103F0000BFF34F8F06480168064A01F4E061114390
:103F10000160BFF34F8F00BFFDE700005800002095
:103F20000CED00E00400FA05064810B581784078F1
:103F3000014302D04FF0FF3010BD06F0E9FE002033
:103F400010BD000058000020064810B58178407868
:103F5000014302D04FF0FF3010BD0BF00BFA0020F0
:103F600010BD000058000020064810B58178407848
:103F7000014302D04FF0FF3010BD07F08DF8002054
:103F800010BD000058000020074810B58178427825
:103F9000114302D04FF0FF3010BD0121C17007F076
:103FA00069F8002010BD000058000020010000004A
:103FB00001010100001B1B03020000004C1D00005A
:103FC00003001F00000000000EE7C56667183CAC48
:103FD000B3D2CC81A3DCF1C0C0360222054A10B5B1
:103FE000526812B1BDE81040104783210420FFF74A
:103FF00067FF0000800F0020054A10B5126812B15B
:10400000BDE8104010477D210420FFF759FF000054
:10401000800F0020054A10B5926812B1BDE810402B
:10402000104789210420FFF74BFF0000800F00207C
:104030000548016829B1416819B1806808B10120BB
:104040007047002070470000800F002002490DC813
:1040500081E80D0000207047800F0020F8B5124C59
:104060000026256811E00098022802D003280CD110
:1040700006E0206810B10020266005E028210CE051
:10408000206868B101202660A847684600F094FCCB
:104090000028E8D0052805D035210420FFF710FFBF
:1040A0002D21FAE7F8BD00006000002070B5144C27
:1040B0000546207840B1A278611C2846921C08F081
:1040C0000FFB0020207013E00E4801F0C9FF00280C
:1040D0000FD00C480078142804D10A213E2008F0A3
:1040E00050FC38B10749284608F0A9FC002800D048
:1040F000012070BD0349284608F0DEFEF8E7000005
:10410000941000208C0F002070B50A7882703AB3AA
:10411000012A25D81323037000230AE001EB43048E
:1041200000EB4305A678EE706488240A5B1C2C71B2
:10413000DBB29342F2D300230BE000BF01EB430557
:1041400000EB43042E796671AD882D0A5B1CA571C6
:10415000DBB29342F2D3012101EB8200C0B270BD09
:10416000002070BD01210C4A40280CD2202803D821
:10417000401E8140106802E02138814050680142B1
:1041800007D100207047FF2803D040388140906855
:10419000F5E7012070470000640000200121401E67
:1041A00081400448C068014201D0012070470020CE
:1041B000704700006400002001490068C860704733
:1041C0006400002004490268406842F48C220A60BE
:1041D000024A10434860704764000020F80740021C
:1041E00001490068886070476400002005484FF06E
:1041F000FF310160C90C4160002181601F21C16055
:10420000704700006400002010B5FFF7EFFF0BF0CF
:104210008AF804460248006800B18047204610BD75
:1042200074000020014908607047000074000020FD
:10423000022101804180002101710E2141714CF267
:10424000E751C18001498160002070476667183CD2
:104250003EB50446694609F0EDFA70B140F25A21C4
:1042600008E000BFBDF80400214600F0A7F820B127
:1042700040F25F211720FFF723FE684600F050F858
:104280000028EFD03EBD000010B520B14FF4D6712C
:104290001720FFF715FE0148007810BD9811002087
:1042A000F8B5054608784A78904202D940F2631181
:1042B0000AE000955DB10026E81C4C7820F0030070
:1042C000A84206D040F279111720FFF7F9FD012628
:1042D000F2E7124F314668463C7000F0E1F80020EA
:1042E00003460099C91C21F00301009166B907EB50
:1042F00080029160002105E0D2F808C04CF821301E
:10430000491CC9B2A142F7D30099401C01EB8401BA
:10431000009110F0FF00E4D0481BF8BD9811002078
:1043200070B5044609F0E0FA08B1102070BD257898
:1043300000F0F2F802460C48618800EB85000EE0C0
:10434000836853F8213043B14A1C6280A1808068A1
:1043500050F82100A060002070BD491C89B2914234
:10436000EED36180052070BD981100202DE9F04149
:1043700049B9114C00273B464FF6FF7604EB810507
:1043800014F801C00DE00020BDE8F081DC19D5F87B
:1043900008E0A4B25EF824E0BEF1000F04D05B1C7C
:1043A0009BB29C45F2D8344604802046B442EAD001
:1043B000BDE8F04100F02CB89811002070B5064619
:1043C000A0F57F4043F20205FF381AD009B107205B
:1043D00070BD304600F054F8040012D00A4821465F
:1043E000026830469047094D0020A96841F8260030
:1043F00000F088F802462146686809F005FA0020B6
:1044000070BD284670BD00002C45000098110020AA
:104410002DE9F04190460E46074609F01BFA48B1D7
:10442000154800EB8605A86850F8270028B14FF41E
:104430009D7114E040F2391111E06868002818D02D
:10444000304600F05FF80146686809F08FF9040013
:104450000ED0A86840F8274026B140F24511172039
:10446000FFF72EFD05484246214603683846984727
:104470002046BDE8F081000098110020284500008A
:1044800070B50C46054609F0E5F9002805D003484B
:1044900000EB8400806850F8250070BD9811002062
:1044A0002DE9F843164E8846054600242868C01CAE
:1044B00020F003002860204600F024F8315D4843D6
:1044C000B8F1000F01D0002200E02A6801460092F6
:1044D00032B100274FEA0D0009F075F91FB106E06F
:1044E00001270020F8E706EB8401009A4A6029685A
:1044F000641C0844286014F0FF04D7D0BDE8F8839A
:1045000098110020034931F810004FF6FC71C01CCF
:1045100008407047244500000148007870470000BB
:1045200098110020E001000069D8000001EA0000B5
:104530002DE9FF4F264C804681B020689A4693466D
:1045400058B1027A424503D9416851F8280040B178
:1045500043F2020005B0BDE8F08FA5211820FFF757
:10456000AFFC1946029809F097F986B258460E99A1
:1045700009F089F985B27019001D87B22068A1463B
:104580003946006809F0F2F804001FD067802580E2
:104590002946201D0E9D07465A460123009509F025
:1045A00045F82088314638440123029ACDF800A00E
:1045B00009F03CF82088C119384609F068F8D9F8A4
:1045C00000004168002041F82840C3E70420C1E70B
:1045D0007800002070B5144C23688BB1197A8142A1
:1045E00012D95A6852F8201071B1002542F82050B3
:1045F0004A88186809F008F9216800200A7A0CE056
:10460000C8211820FFF75CFC43F2020070BD4B6824
:1046100053F8203033B9401CC0B28242F7D8086842
:1046200009F0E7F8002070BD780000202DE9F04186
:104630000D46040090464FF0000609D00027E01C0C
:1046400020F00300A04205D086211820FFF738FC97
:104650000127F4E7CDB11146002009F0B4F80C3081
:1046600000EB85068FB90A4F04F10C00AA003C60EC
:104670002572606000EB850020600021606808F012
:10468000A9F84146386809F09EF83046BDE8F08147
:104690007800002070B5084D286800280AD0002452
:1046A00004E02046FFF796FF641CE4B22868007A15
:1046B000A042F6D870BD000078000020094910B56E
:1046C00002460968002049B10B7A934205D949682E
:1046D00051F82210002900D0081D10BDEE2118202D
:1046E000FFF7EEFB780000200A4910B50246096882
:1046F000002059B10B7A934207D9496851F822102A
:10470000002902D031F8040B084410BDFC21182008
:10471000FFF7D6FB78000020014840787047000082
:104720007C00002001484068704700007C000020A9
:104730002DE9F8430C46074616461C2110460D4647
:10474000224608F0CEFF804657B1384641463246F1
:104750002B46009408F06AFF0348476004704670D7
:104760004046BDE8F88300007C0000200248427803
:1047700001784068FFF7DCBF7C000020094910B5D4
:1047800007480860084B112003EBC0040022C4F85E
:104790001025C4F81425401CC0B21428F4D310BD51
:1047A0000000FEFF08F5014000F0014070B5202434
:1047B0000021012320FA01F2D20720D04AB2002AB8
:1047C00010DB00BF4FEA52164FEA860602F01F05C3
:1047D00006F1E02603FA05F5C6F88051BFF34F8FC6
:1047E000BFF36F8F0BDB02F01F054FEA52124FEA47
:1047F000820202F1E02203FA05F5C2F8805201F1CB
:104800000101A142D6D370BD70B542004FF0000146
:1048100001D5144A1160C0F38032C0F3C0339A420C
:1048200003D069211B20FFF74BFB10F4404F14D03D
:104830000D4A01205060831EC2F808330B4A906075
:10484000C2F80012C2F80833094C2160251D286007
:104850009060C2F8083321602860BDE87040FFF71F
:104860008DBF000004E5014000E0004000F0004082
:1048700000F5004070B50A4C0D462060FFF7C4FFFC
:104880002068FFF793FF00F083F8FFF777FF09F048
:1048900020F8284600F0B6F8BDE8704000F0CEB829
:1048A000840000202DE9F14F364C82B0D4F804B5D5
:1048B0000126354807F06BFEDFF8CC9020B90026C2
:1048C00009F1010007F07AFE4FF480754FF00008FF
:1048D0002F1D01216160C4F80081C4F80481029891
:1048E000C4F804052160DFF8A4A01CE0DAF8000099
:1048F000C00618D50E2008F0D8FFEFF31080009006
:1049000072B603212046C4F80413294608F0DAFFE2
:1049100030B93946204608F0D5FF08B9FFF716F937
:10492000009800B962B62946204608F0CBFF28B9A6
:104930003946204608F0C6FF0028D7D03946204621
:1049400008F0C0FF0028C4D136B1C4F804B509F19D
:10495000010007F01CFE12E009F1010007F017FE4C
:104960000028ADD10320C4F80803C4F80481C4F8BA
:1049700000810E2008F099FF034807F01FFE002079
:10498000BDE8FE8F00E000408702002010ED00E04F
:1049900010B5084807F00EFE08B1252106E00548CD
:1049A000401C07F007FE002803D029211D20FFF737
:1049B00087FA10BD8702002070B511490A68EAB174
:1049C00000231D4601244A68521C4A600C2A00D369
:1049D0004D600E7904FA06F20E6816420BD0EFF322
:1049E000108372B60C6894430C6003B962B64968D0
:1049F0000160002070BD5B1C0C2BE4D3052070BD52
:104A000088000020024800210160416070470000DA
:104A10008800002010B5084C617809B10F2010BD46
:104A2000FFF720F82070FF2801D0002010BD76216C
:104A30001F20FFF745FA00009000002001490020E8
:104A400048707047900000200648074A818C5288C1
:104A5000914204D190F8220008B100207047012053
:104A6000704700001C1300206C02002001494880A0
:104A7000704700006C0200200848094A818C528867
:104A8000914209D14FF6FF71818410F8221F19B1AC
:104A90000021017001207047002070471C13002086
:104AA0006C020020074810F8221F012907D00121BD
:104AB0000170054803490088888401207047002060
:104AC000704700001C1300206C0200200649074BB1
:104AD0008A8C5B889A4205D191F8222012B101603C
:104AE00001207047002070471C1300206C0200203A
:104AF00009498A8CA2F57F43FF3B02D00021016067
:104B000007E091F822200449012A02D00160012027
:104B100070470020704700001C13002001490880E6
:104B2000704700006C0200200549002081F8220037
:104B30004FF6FF7088840349088048807047000062
:104B40001C1300206C02002005498A8C824205D18A
:104B5000002081F822004FF6FF7088847047000023
:104B60001C1300200A4A10B1012807D00EE050782B
:104B700060B1D2F802000860D08804E0107828B153
:104B800090680860908988800120704700207047F5
:104B900089020020084A012338B1012804D113708A
:104BA0000868906088889081704753700868C2F8E0
:104BB00002008888D080704789020020064910B121
:104BC000012802D005E0487800E0087808B101200B
:104BD0007047002070470000890200200149487496
:104BE000704700007A0B002078B513494A7C0AB35D
:104BF0000A7C8DF80020009A00929DF80020CAB12E
:104C0000002301F110021F24A1F152050E7C8DF842
:104C10000060009E00969DF800604EB113704370D6
:104C20000470D5F85A604660D5F85E608660EDE79E
:104C3000012078BD002078BD7A0B002010B5044615
:104C400000F05CF918B1BD212720FFF739F90348BE
:104C5000012109F030FA0248C46210BD580B00204F
:104C6000AC0000200149012088717047AC00002091
:104C70002DE9F84F664D0A9C2E78EEBBE2B3DBB30C
:104C8000D4B305F11406C5E90E0186E81C0000271F
:104C9000AF716F71EF70AF702F71AF81EF8100F066
:104CA00071F9064600F068F9044606F091FE06F038
:104CB00075FB94F96E0006F011FF04F1180006F080
:104CC000EBFF206906F0DEFF96F8230007F002F8FC
:104CD0004FF0010B94F86A10002006F03DFD00280B
:104CE0007ED04C4806F0ACFD2088FFF7FDFC286321
:104CF0002088FFF7E3FC00E00AE0686394F877009F
:104D00008DF80000009800909DF8000018B112E0A6
:104D10004FF48A7179E0206F68B1708EB188884253
:104D200009D1B4F8741001220844708694F8760012
:104D3000216FFDF767FD06F16801DFF8DC9091E86F
:104D40000E1009F1080888E80E10B16FC9F821109B
:104D5000F16FC9F8251000F083F90146208FBA469B
:104D600008F094FFA18E814200D208462872A8461E
:104D700094F86B10E08FF77CA58F082900D10421EF
:104D800008F084FF0FB9001D80B2854200D228468A
:104D9000C0B288F80900F27C02B10422104488F8FD
:104DA0000700B17CA1B11C49083181F818B0D6E9DF
:104DB0001602C1E9040294F86A0008F014FE1649CC
:104DC0000346FB220831002006F032FB06F066FBAA
:104DD000012000F095FB11480068032813D000E083
:104DE0000FE00B280FD0484640F852AFC0F804A09F
:104DF0000948B188523041802188018096F82310FB
:104E00000171BDE8F88F40F2C1112720FFF758F873
:104E1000AC00002084560000280B002050150040F4
:104E20002DE9F047054600F0ADF8334E0446706AB0
:104E300047780DB1012D03D1716B07F07AFD7070C9
:104E400070784FF000084FF0010950B101281AD0D6
:104E5000022834D0032848D040F215412720FFF71C
:104E60002FF8012D32D000F0E7F839460122706B9F
:104E700008F03DFA28E000BF84F8088031E000BF68
:104E800084F808902DE0012D08D000F0D5F83946BF
:104E90000022706B08F02BFA022D0BD0D4E9180118
:104EA000401C41F10001C4E91801207A012803D017
:104EB00084F80890BDE8F08784F80880FAE7012DAF
:104EC00004D0706B08F04DFC022DF3D0D4E918012A
:104ED000401C41F10001C4E91801207A0128CFD11A
:104EE000CAE7BDE8F04701F02BB9012DE2D0706BA5
:104EF00008F037FCF5E70000AC000020044800781B
:104F000008B10C2070470349002048747047000026
:104F1000AC0000207A0B0020124808B5017839B1A6
:104F20000078012806D040F2D9112720FEF7C8FFEB
:104F300000F0CEF900F020F890F877108DF800100E
:104F4000009900919DF8001000290AD1016F0029F5
:104F500007D090F876000022BDE808401146FDF722
:104F600051BC08BDAC000020024A938903439381E1
:104F700052691047AC0000200148406870470000AB
:104F8000E40000200148406878307047E4000020C9
:104F9000014A002152691047AC00002070B5FFF7AC
:104FA000F1FF0446FFF7E8FF0546214608F036FF0B
:104FB00095F82610012914D1002812D009490120A2
:104FC0004A682988A2F88A11617A82F88C11A17A3C
:104FD00082F88D1102F5C4721070BDE8704001F0C6
:104FE000AFB870BDE400002070B5054601291CD89B
:104FF000104CA1698847C0B16079B0B9012D16D1B4
:1050000004F110000078C10605D4E16A0978C906E8
:1050100001D4012100E00021A26A1AB962890AB113
:10502000C00602D5A089014301D0012070BD002037
:1050300070BD0000AC00002010B5084CA06A38B16B
:105040006289616AD21C07F04BFBA06A606210BDE6
:1050500040F25B412720FEF733FF0000AC00002048
:1050600010B5FFF789FF0446FFF78CFF417B0A4A22
:10507000242908D0807B242805D094F86A000428CD
:1050800000D1082010BD506890F8261194F86A00ED
:10509000BDE8104008F0B5BCE40000202DE9F8435D
:1050A00089460646FFF76EFF584C002705468DF8E7
:1050B00000702078022804D040F2BA412720FEF781
:1050C000FFFEA07B400606D44020FFF761FFE08989
:1050D00040F04000E081E87C4FF00108C6B306F0E4
:1050E0000DFA06F0F1F968B9E87C58B1606A4178C8
:1050F00041B10078297AC0F3C000884202D184F817
:10510000028064E0606A4178618121B1606B08F0DF
:10511000F5FAA06200E0A762E08940F48070E081C7
:10512000606AE9790078C0F38000884205D000F019
:1051300063F9E08940F48060E081606A297A007850
:10514000C0F3C00088420ED1684600F017F90AE0AB
:10515000FFE708B106F0CCF9E078401CE070E08988
:1051600040F40070E081A87CA0B1FFF705FF28495A
:1051700081F81880D5E91623C1E9042390F86A0064
:1051800008F031FC0346FB222149002006F050F9CB
:1051900006F084F91E4D4A35B9F1000F04D1E178CB
:1051A0000120FFF721FFB0B106F048FD9DF8000097
:1051B00010B10020FFF734FE36B1E7706879401C6B
:1051C0006871FFF7EBFE02E0A879401CA87100F0BF
:1051D0007FF8BDE8F8839DF8000010B10120FFF7CB
:1051E0001FFE002000F08CF99DF8000010B1022095
:1051F000FFF716FE36B1E7706879401C6871FFF75B
:10520000CDFEE6E7A879401CA871E2E7AC000020DB
:10521000300B00202DE9F04788468146FFF7B2FEAB
:10522000294D04462878012804D040F26A412720FD
:10523000FEF746FE60780026012720B16670002147
:105240000420FFF791FE296A0878C043800709D13E
:10525000A07988BB0220FFF787FE286A0078C04348
:10526000800729D0286A407810B10220A07100E0A0
:10527000A771E07CA0B1FFF77FFE14496D7A0E762E
:10528000D4E91823C1E9042390F86B0008F0ABFBC4
:1052900003462A460D49012006F0CAF806F0FEF83A
:1052A00038EA090004D000210846FFF79DFE28B126
:1052B000BDE8F04700F00CB80320D7E7BDE8F047A1
:1052C000002000F0DFB80000AC000020300B002010
:1052D00010B506F0A5F906F061F80D4CE089FFF76E
:1052E00057FEE2696179A07890470A48407C58B13E
:1052F0000848523850F8521F81604168C160054823
:105300000121017400F01CFF0020207010BD00007E
:10531000AC0000207A0B0020084810B50078022865
:1053200004D040F211212720FEF7CAFD04490120D4
:10533000C871BDE81040FFF7CBBF0000AC000020F3
:105340007A0B002030B40C4B42B9DA79FF2A05D130
:1053500090F86B2090F86A40A2420BD031B1DA7914
:1053600090F86B1030BC104606F0A0BCFF2290F8FD
:105370006A10F7E730BC7047AC00002070B50646F5
:10538000FFF700FE1B4A04460125516A087800F029
:10539000030001280CD002280AD0032821D165700F
:1053A000D08940F40060D0810120FFF7DDFD18E0D6
:1053B0004878B0B1D18941F40061D181916A002966
:1053C00009D0FB2808D8907920B1BDE87040202092
:1053D000FFF7DEBD357070BD507940F010005071A0
:1053E00070BD207A012801D0257270BD0020207286
:1053F00070BD0000AC00002070B5FFF7C3FD04468F
:105400008079002827D002280DD11848006B07F0BA
:1054100047FF08B3D4E91601401C41F10001C4E97B
:10542000160100F08DFE0025A571A078012670B14F
:10543000A570FFF721FB90B100210820FFF794FD34
:10544000D4E91601401C41F10001C4E91601E079DC
:10545000012809D0E67170BD4FF46C7101E04FF482
:1054600072712720FEF72CFDE57170BDAC000020A5
:1054700003480078002801D0FFF72ABF70470000DA
:10548000AC0000202DE9F0410746FFF775FD80468E
:10549000FFF778FD174C05463A46E06A6062012145
:1054A0004046FFF74FFFE87C002678B1124806F02F
:1054B0001BFB12480676D5E91812C0E904120E4902
:1054C000606A05F03DFF05F04FFF04E0606A06F0FA
:1054D0000BFB05F063FF17B9304606F0B9F9002160
:1054E00098F86A20084606F08BFB02202070BDE881
:1054F000F0810000AC000020280A0020300B0020C2
:105500002DE9FC470446FFF73DFD0546FFF734FD56
:105510000646DFF8649122460021FFF713FFA879C1
:105520004FF000080127A9F1200440B101281FD045
:10553000022830D003283CD040F2AE2158E0207A37
:105540005021ADF8040088534846FFF7BFFA28B150
:105550008020216AFFF708FDAF702EE06A4601A99E
:10556000206B08F058FA206210B195F8451011B17F
:105570004248206221E09DF8001031B9A0F8008077
:1055800080F80280012108F096FDBDF80410206A21
:1055900008F04BFD11E0B6F85000ADF804006A4683
:1055A00001A9206B08F037FA206230B940F29F2140
:1055B0001EE04846FFF78AFAC0B1206A0823017846
:1055C00021F008010170EA7903EAC202114321F0D7
:1055D000040101702A7A042303EA8202114321F0B4
:1055E00010010170C943890705D007E04FF42A7103
:1055F0002720FEF765FCC07802280FD0206B07F04B
:10560000A0FF08B101210AE0206A0078C0438007AA
:1056100004D0FFF719FA80F0010100E00021206AB0
:10562000027842EA01110170A97C91B1417881B1FF
:10563000134806F059FA114828380776D5E91612AA
:10564000C0E904120E48216A05F07AFE05F0C4FE96
:1056500003E006F049FA05F0A1FE96F86B2001215F
:10566000002006F0CDFA2771206A01882182807817
:10567000A0742770BDE8FC87CC000020580B0020E8
:10568000280A0020195300009D5000001552000008
:1056900071540000004870471515002070B50026B1
:1056A00035460F4C18E0601990F83B2190F8031133
:1056B000012A02D090F84B0160B10A4804EBC10105
:1056C000731C855591F853213046DEB201F5AA715D
:1056D00006F0BEFB6D1CEDB2A078A842E3D870BD09
:1056E000421300207402002004498A78824203D9C0
:1056F000084490F84301704700207047421300208F
:1057000004498A78824203D901EB00108330704744
:105710000020704742130020054A01EB410102EBD3
:1057200041010268C1F80B218088A1F80F01704780
:10573000421300202DE9F04107460024104D19E0E6
:105740002046FFF7DDFF030012D0281990F843012F
:1057500070B904EB440005EB400606F20B163A461E
:105760003146184608F0DAF830462146FFF7D4FFF4
:10577000641CE4B2A878A042E2D8BDE8F081000041
:10578000421300202DE9F0410E460746154606213A
:10579000304608F093FB0D4C60B1002004E0211866
:1057A000401C81F83B51C0B2A1788142F7D801205A
:1057B000BDE8F0813146384608F03CF9082803D0AE
:1057C000204480F83B51F2E70020F1E7421300202B
:1057D00004498A78824203D901EB0010C01C70474B
:1057E000002070474213002008498A78824203D97A
:1057F0000A1892F843210AB10020704700EB4000DC
:1058000001EB400000F20B10704700004213002033
:1058100010B540F2D3120021084806F0DBFF082241
:10582000FF21074806F0D6FF05480021001F017040
:1058300041704FF46171418010BD0000421300209F
:1058400074020020014908707047000070020020B7
:105850000148007870470000700200200B4B10B523
:105860009C7884420FD9184490F8030103EBC000E0
:1058700090F853310B70D0F854111160B0F8580102
:105880009080012010BD002010BD000042130020B8
:1058900007498A78824209D9084490F8030101EB4C
:1058A000C00090F85A0100F00100704700207047D6
:1058B000421300202DE9F047984691460C460546D4
:1058C00000F062F90646102806D000F02DF91028E5
:1058D00002D01220BDE8F087184FB87808282AD2E5
:1058E000102E05D100222146284600F031F9064647
:1058F000BC781022601CB87007EB0415E81C494600
:1059000008F07FFA05F183001022414608F079FA89
:105910001021404608F0D2FA3C44102184F843019B
:10592000484604F5967408F0C9FAE07704F8296C43
:105930000020E073CEE70720CCE7000042130020F0
:10594000064810B58078401E44B204E0E0B200F092
:1059500063F9641E64B2002CF8DA10BD4213002013
:1059600001484088704700007002002038B14AF2B8
:10597000B811884203D803494880012070470020AD
:1059800070470000700200202DE9F0411446012507
:1059900000221F462E46227000F0F6F8102824D070
:1059A000DFF8548008EBC00191F85A1101F00101B1
:1059B000217000F0B9F80446102816D007B13C70E9
:1059C0002046FFF705FF80B198F802104046A1423B
:1059D00003D9011991F84B6100E0002608EB04009F
:1059E00090F83B01012804D0002545EA0600BDE8F7
:1059F000F0810125F9E700004213002070B50D4643
:105A0000064600F0C1F8104C102807D004EBC00186
:105A100091F85A11C90701D0012070BD6178082999
:105A200010D2102808D004EBC000012180F85A11D0
:105A30006078401C6070EFE701222946304600F094
:105A400087F8F5E7002070BD4213002070B50B4DBC
:105A50002878401E44B20AE005EBC40090F85A01D1
:105A6000C00702D0E0B200F01FF9641E64B2002C3F
:105A7000F2DA03490020487070BD00004213002094
:105A8000700200202DE9F04100242546184E29E03F
:105A900006EBC50797F85A01C00721D0284600F049
:105AA00043F80346FFF794FE01460020102B09D06F
:105AB000F21892F83BC1BCF1010F02D092F84B21D1
:105AC00002B10120401E01420AD10A4807F5AA711D
:105AD00003552046641C97F85321E4B206F0B8F948
